{
  "contractName": "AssignRedPacket",
  "abi": [
    {
      "inputs": [
        {
          "internalType": "uint256",
          "name": "_count",
          "type": "uint256"
        },
        {
          "internalType": "bool",
          "name": "_isEqual",
          "type": "bool"
        }
      ],
      "stateMutability": "nonpayable",
      "type": "constructor"
    },
    {
      "inputs": [],
      "name": "count",
      "outputs": [
        {
          "internalType": "uint256",
          "name": "",
          "type": "uint256"
        }
      ],
      "stateMutability": "view",
      "type": "function",
      "constant": true
    },
    {
      "inputs": [],
      "name": "totalAmount",
      "outputs": [
        {
          "internalType": "uint256",
          "name": "",
          "type": "uint256"
        }
      ],
      "stateMutability": "view",
      "type": "function",
      "constant": true
    },
    {
      "inputs": [],
      "name": "getBalance",
      "outputs": [
        {
          "internalType": "uint256",
          "name": "",
          "type": "uint256"
        }
      ],
      "stateMutability": "view",
      "type": "function",
      "constant": true
    },
    {
      "inputs": [],
      "name": "deposit",
      "outputs": [],
      "stateMutability": "payable",
      "type": "function",
      "payable": true
    },
    {
      "inputs": [],
      "name": "withdraw",
      "outputs": [],
      "stateMutability": "payable",
      "type": "function",
      "payable": true
    },
    {
      "inputs": [],
      "name": "grabRedPacket",
      "outputs": [],
      "stateMutability": "payable",
      "type": "function",
      "payable": true
    }
  ],
  "bytecode": "0x608060405234801561001057600080fd5b5060405162000cbd38038062000cbd8339818101604052810190610034919061010f565b336000806101000a81548173ffffffffffffffffffffffffffffffffffffffff021916908373ffffffffffffffffffffffffffffffffffffffff1602179055508160028190555080600360006101000a81548160ff021916908315150217905550505061014f565b600080fd5b6000819050919050565b6100b4816100a1565b81146100bf57600080fd5b50565b6000815190506100d1816100ab565b92915050565b60008115159050919050565b6100ec816100d7565b81146100f757600080fd5b50565b600081519050610109816100e3565b92915050565b600080604083850312156101265761012561009c565b5b6000610134858286016100c2565b9250506020610145858286016100fa565b9150509250929050565b610b5e806200015f6000396000f3fe608060405260043610610072576000357c01000000000000000000000000000000000000000000000000000000009004806306661abd1461007757806312065fe0146100a25780631a39d8ef146100cd5780633ccfd60b146100f8578063c4712e2114610102578063d0e30db01461010c575b600080fd5b34801561008357600080fd5b5061008c610116565b6040516100999190610678565b60405180910390f35b3480156100ae57600080fd5b506100b761011c565b6040516100c49190610678565b60405180910390f35b3480156100d957600080fd5b506100e261013b565b6040516100ef9190610678565b60405180910390f35b610100610141565b005b61010a61029c565b005b610114610601565b005b60025481565b60003073ffffffffffffffffffffffffffffffffffffffff1631905090565b60015481565b60008054906101000a900473ffffffffffffffffffffffffffffffffffffffff1673ffffffffffffffffffffffffffffffffffffffff163373ffffffffffffffffffffffffffffffffffffffff16146101cf576040517f08c379a00000000000000000000000000000000000000000000000000000000081526004016101c6906106f0565b60405180910390fd5b600060015411610214576040517f08c379a000000000000000000000000000000000000000000000000000000000815260040161020b9061075c565b60405180910390fd5b600060018190555060008054906101000a900473ffffffffffffffffffffffffffffffffffffffff1673ffffffffffffffffffffffffffffffffffffffff166108fc3073ffffffffffffffffffffffffffffffffffffffff16319081150290604051600060405180830381858888f19350505050158015610299573d6000803e3d6000fd5b50565b6000600154116102e1576040517f08c379a00000000000000000000000000000000000000000000000000000000081526004016102d89061075c565b60405180910390fd5b600060025411610326576040517f08c379a000000000000000000000000000000000000000000000000000000000815260040161031d906107c8565b60405180910390fd5b600460003373ffffffffffffffffffffffffffffffffffffffff1673ffffffffffffffffffffffffffffffffffffffff16815260200190815260200160002060009054906101000a900460ff16156103b3576040517f08c379a00000000000000000000000000000000000000000000000000000000081526004016103aa90610834565b60405180910390fd5b6001600460003373ffffffffffffffffffffffffffffffffffffffff1673ffffffffffffffffffffffffffffffffffffffff16815260200190815260200160002060006101000a81548160ff021916908315150217905550600160025403610463573373ffffffffffffffffffffffffffffffffffffffff166108fc6001549081150290604051600060405180830381858888f1935050505015801561045d573d6000803e3d6000fd5b506105e7565b600360009054906101000a900460ff16156104f257600060025460015461048a91906108b2565b9050806001600082825461049e91906108e3565b925050819055503373ffffffffffffffffffffffffffffffffffffffff166108fc829081150290604051600060405180830381858888f193505050501580156104eb573d6000803e3d6000fd5b50506105e6565b6000600160083360008054906101000a900473ffffffffffffffffffffffffffffffffffffffff16600254600154426040516020016105359594939291906109f9565b60405160208183030381529060405280519060200120600190046105599190610a58565b6105639190610a89565b90506000600a826001546105779190610abd565b61058191906108b2565b9050806001600082825461059591906108e3565b925050819055503373ffffffffffffffffffffffffffffffffffffffff166108fc829081150290604051600060405180830381858888f193505050501580156105e2573d6000803e3d6000fd5b5050505b5b600260008154809291906105fa90610aff565b9190505550565b60003411610644576040517f08c379a000000000000000000000000000000000000000000000000000000000815260040161063b9061075c565b60405180910390fd5b34600160008282546106569190610a89565b92505081905550565b6000819050919050565b6106728161065f565b82525050565b600060208201905061068d6000830184610669565b92915050565b600082825260208201905092915050565b7f6e6f7420746865206f776e657200000000000000000000000000000000000000600082015250565b60006106da600d83610693565b91506106e5826106a4565b602082019050919050565b60006020820190508181036000830152610709816106cd565b9050919050565b7f6e6f7420656e6f75676800000000000000000000000000000000000000000000600082015250565b6000610746600a83610693565b915061075182610710565b602082019050919050565b6000602082019050818103600083015261077581610739565b9050919050565b7f6e6f207265647061636b657473206c6566740000000000000000000000000000600082015250565b60006107b2601283610693565b91506107bd8261077c565b602082019050919050565b600060208201905081810360008301526107e1816107a5565b9050919050565b7f616c726561647920677261622069742100000000000000000000000000000000600082015250565b600061081e601083610693565b9150610829826107e8565b602082019050919050565b6000602082019050818103600083015261084d81610811565b9050919050565b7f4e487b7100000000000000000000000000000000000000000000000000000000600052601260045260246000fd5b7f4e487b7100000000000000000000000000000000000000000000000000000000600052601160045260246000fd5b60006108bd8261065f565b91506108c88361065f565b9250826108d8576108d7610854565b5b828204905092915050565b60006108ee8261065f565b91506108f98361065f565b925082820390508181111561091157610910610883565b5b92915050565b600073ffffffffffffffffffffffffffffffffffffffff82169050919050565b600061094282610917565b9050919050565b60006c0100000000000000000000000082029050919050565b600061096d82610949565b9050919050565b600061097f82610962565b9050919050565b61099761099282610937565b610974565b82525050565b60006109a882610917565b9050919050565b60006109ba82610962565b9050919050565b6109d26109cd8261099d565b6109af565b82525050565b6000819050919050565b6109f36109ee8261065f565b6109d8565b82525050565b6000610a058288610986565b601482019150610a1582876109c1565b601482019150610a2582866109e2565b602082019150610a3582856109e2565b602082019150610a4582846109e2565b6020820191508190509695505050505050565b6000610a638261065f565b9150610a6e8361065f565b925082610a7e57610a7d610854565b5b828206905092915050565b6000610a948261065f565b9150610a9f8361065f565b9250828201905080821115610ab757610ab6610883565b5b92915050565b6000610ac88261065f565b9150610ad38361065f565b9250828202610ae18161065f565b91508282048414831517610af857610af7610883565b5b5092915050565b6000610b0a8261065f565b915060008203610b1d57610b1c610883565b5b60018203905091905056fea26469706673582212209974066f5df34d4863e4200ab628e330092c3f9e25e3a83d04912059e357f2eb64736f6c63430008130033",
  "immutableReferences": {},
  "source": "// SPDX-License-Identifier: MIT\r\npragma solidity ^0.8.19;\r\n\r\ncontract AssignRedPacket {\r\n    address payable owner;\r\n    uint256 public totalAmount;\r\n    uint256 public count;\r\n    bool isEqual;\r\n    mapping(address => bool) isGrabbed;\r\n\r\n    constructor(uint256 _count, bool _isEqual) {\r\n        owner = payable(msg.sender);\r\n        count = _count;\r\n        isEqual = _isEqual;\r\n    }\r\n\r\n    function getBalance() public view returns (uint256) {\r\n        return address(this).balance;\r\n    }\r\n    function deposit() public payable {\r\n        require(msg.value>0,\"not enough\");\r\n        totalAmount += msg.value;\r\n    }\r\n    function withdraw() public payable {\r\n        require(msg.sender==owner,'not the owner');\r\n        require(totalAmount>0,\"not enough\");\r\n        totalAmount = 0;\r\n        payable(owner).transfer(address(this).balance);\r\n    }\r\n    function grabRedPacket() public payable {\r\n        require(totalAmount > 0, \"not enough\");\r\n        require(count > 0, \"no redpackets left\");\r\n        require(!isGrabbed[msg.sender], \"already grab it!\");\r\n        isGrabbed[msg.sender] = true;\r\n        if (count == 1) {\r\n            payable(msg.sender).transfer(totalAmount);\r\n        } else {\r\n            if (isEqual) {\r\n                uint256 amount = totalAmount / count;\r\n                totalAmount -= amount;\r\n                payable(msg.sender).transfer(amount);\r\n            } else {\r\n                uint256 random = (uint256(\r\n                    keccak256(\r\n                        abi.encodePacked(\r\n                            msg.sender,\r\n                            owner,\r\n                            count,\r\n                            totalAmount,\r\n                            block.timestamp\r\n                        )\r\n                    )\r\n                ) % 8) + 1;\r\n                uint256 amount = (totalAmount * random) / 10;\r\n                totalAmount -= amount;\r\n                payable(msg.sender).transfer(amount);\r\n            }\r\n        }\r\n        count--;\r\n    }\r\n}",
  "sourcePath": "D:\\workspace\\marjor\\truffle-demo\\contracts\\redpacket.sol",
  "compiler": {
    "name": "solc",
    "version": "0.8.19+commit.7dd6d404.Emscripten.clang"
  },
  "schemaVersion": "3.4.16",
  "updatedAt": "2025-06-05T05:51:47.131Z",
  "networkType": "ethereum",
  "devdoc": {
    "kind": "dev",
    "methods": {},
    "version": 1
  },
  "userdoc": {
    "kind": "user",
    "methods": {},
    "version": 1
  }
}