{
  "contractName": "SayHiContract",
  "abi": [
    {
      "inputs": [],
      "stateMutability": "nonpayable",
      "type": "constructor"
    },
    {
      "anonymous": false,
      "inputs": [
        {
          "indexed": true,
          "internalType": "string",
          "name": "name",
          "type": "string"
        },
        {
          "indexed": true,
          "internalType": "uint256",
          "name": "age",
          "type": "uint256"
        }
      ],
      "name": "InfoSet",
      "type": "event"
    },
    {
      "inputs": [],
      "name": "balance",
      "outputs": [
        {
          "internalType": "uint256",
          "name": "",
          "type": "uint256"
        }
      ],
      "stateMutability": "view",
      "type": "function",
      "constant": true
    },
    {
      "inputs": [],
      "name": "owner",
      "outputs": [
        {
          "internalType": "address payable",
          "name": "",
          "type": "address"
        }
      ],
      "stateMutability": "view",
      "type": "function",
      "constant": true
    },
    {
      "inputs": [
        {
          "internalType": "string",
          "name": "_name",
          "type": "string"
        },
        {
          "internalType": "uint256",
          "name": "_age",
          "type": "uint256"
        }
      ],
      "name": "setInfo",
      "outputs": [],
      "stateMutability": "nonpayable",
      "type": "function"
    },
    {
      "inputs": [],
      "name": "sayHi",
      "outputs": [
        {
          "internalType": "string",
          "name": "",
          "type": "string"
        }
      ],
      "stateMutability": "pure",
      "type": "function",
      "constant": true
    },
    {
      "inputs": [],
      "name": "getInfo",
      "outputs": [
        {
          "internalType": "string",
          "name": "",
          "type": "string"
        },
        {
          "internalType": "uint256",
          "name": "",
          "type": "uint256"
        }
      ],
      "stateMutability": "view",
      "type": "function",
      "constant": true
    },
    {
      "inputs": [],
      "name": "getBalance",
      "outputs": [
        {
          "internalType": "uint256",
          "name": "",
          "type": "uint256"
        }
      ],
      "stateMutability": "view",
      "type": "function",
      "constant": true
    },
    {
      "inputs": [],
      "name": "deposit",
      "outputs": [],
      "stateMutability": "payable",
      "type": "function",
      "payable": true
    },
    {
      "inputs": [
        {
          "internalType": "uint256",
          "name": "_num",
          "type": "uint256"
        },
        {
          "internalType": "address",
          "name": "_to",
          "type": "address"
        }
      ],
      "name": "withdraw",
      "outputs": [],
      "stateMutability": "payable",
      "type": "function",
      "payable": true
    }
  ],
  "bytecode": "0x608060405234801561001057600080fd5b5033600160006101000a81548173ffffffffffffffffffffffffffffffffffffffff021916908373ffffffffffffffffffffffffffffffffffffffff160217905550610d0f806100616000396000f3fe608060405260043610610097576000357c0100000000000000000000000000000000000000000000000000000000900480638262963b1161006b5780638262963b1461013a5780638da5cb5b14610163578063b69ef8a81461018e578063d0e30db0146101b957610097565b8062f714ce1461009c5780630c49c36c146100b857806312065fe0146100e35780635a9b0b891461010e575b600080fd5b6100b660048036038101906100b19190610528565b6101c3565b005b3480156100c457600080fd5b506100cd6102e3565b6040516100da91906105f8565b60405180910390f35b3480156100ef57600080fd5b506100f8610320565b6040516101059190610629565b60405180910390f35b34801561011a57600080fd5b5061012361033f565b604051610131929190610644565b60405180910390f35b34801561014657600080fd5b50610161600480360381019061015c91906107a9565b6103dc565b005b34801561016f57600080fd5b5061017861043a565b6040516101859190610826565b60405180910390f35b34801561019a57600080fd5b506101a3610460565b6040516101b09190610629565b60405180910390f35b6101c1610466565b005b600160009054906101000a900473ffffffffffffffffffffffffffffffffffffffff1673ffffffffffffffffffffffffffffffffffffffff163373ffffffffffffffffffffffffffffffffffffffff1614610253576040517f08c379a000000000000000000000000000000000000000000000000000000000815260040161024a906108b3565b60405180910390fd5b816000541015610298576040517f08c379a000000000000000000000000000000000000000000000000000000000815260040161028f9061091f565b60405180910390fd5b8073ffffffffffffffffffffffffffffffffffffffff166108fc839081150290604051600060405180830381858888f193505050501580156102de573d6000803e3d6000fd5b505050565b60606040518060400160405280600981526020017f4869207468657265210000000000000000000000000000000000000000000000815250905090565b60003073ffffffffffffffffffffffffffffffffffffffff1631905090565b6060600060026003548180546103549061096e565b80601f01602080910402602001604051908101604052809291908181526020018280546103809061096e565b80156103cd5780601f106103a2576101008083540402835291602001916103cd565b820191906000526020600020905b8154815290600101906020018083116103b057829003601f168201915b50505050509150915091509091565b81600290816103eb9190610b51565b508060038190555080826040516104029190610c5f565b60405180910390207fed2aad2d545239f01c25f5517559c4977c7ada72460ddda3b331bfd303cf19d460405160405180910390a35050565b600160009054906101000a900473ffffffffffffffffffffffffffffffffffffffff1681565b60005481565b346000808282546104779190610ca5565b92505081905550565b6000604051905090565b600080fd5b600080fd5b6000819050919050565b6104a781610494565b81146104b257600080fd5b50565b6000813590506104c48161049e565b92915050565b600073ffffffffffffffffffffffffffffffffffffffff82169050919050565b60006104f5826104ca565b9050919050565b610505816104ea565b811461051057600080fd5b50565b600081359050610522816104fc565b92915050565b6000806040838503121561053f5761053e61048a565b5b600061054d858286016104b5565b925050602061055e85828601610513565b9150509250929050565b600081519050919050565b600082825260208201905092915050565b60005b838110156105a2578082015181840152602081019050610587565b60008484015250505050565b6000601f19601f8301169050919050565b60006105ca82610568565b6105d48185610573565b93506105e4818560208601610584565b6105ed816105ae565b840191505092915050565b6000602082019050818103600083015261061281846105bf565b905092915050565b61062381610494565b82525050565b600060208201905061063e600083018461061a565b92915050565b6000604082019050818103600083015261065e81856105bf565b905061066d602083018461061a565b9392505050565b600080fd5b600080fd5b7f4e487b7100000000000000000000000000000000000000000000000000000000600052604160045260246000fd5b6106b6826105ae565b810181811067ffffffffffffffff821117156106d5576106d461067e565b5b80604052505050565b60006106e8610480565b90506106f482826106ad565b919050565b600067ffffffffffffffff8211156107145761071361067e565b5b61071d826105ae565b9050602081019050919050565b82818337600083830152505050565b600061074c610747846106f9565b6106de565b90508281526020810184848401111561076857610767610679565b5b61077384828561072a565b509392505050565b600082601f8301126107905761078f610674565b5b81356107a0848260208601610739565b91505092915050565b600080604083850312156107c0576107bf61048a565b5b600083013567ffffffffffffffff8111156107de576107dd61048f565b5b6107ea8582860161077b565b92505060206107fb858286016104b5565b9150509250929050565b6000610810826104ca565b9050919050565b61082081610805565b82525050565b600060208201905061083b6000830184610817565b92915050565b7f796f7520646f6e7427742068617665207065726d697373696f6e20746f20776960008201527f7468647261770000000000000000000000000000000000000000000000000000602082015250565b600061089d602683610573565b91506108a882610841565b604082019050919050565b600060208201905081810360008301526108cc81610890565b9050919050565b7f796f7520646e742774206861766520656e6f756768206d6f6e65790000000000600082015250565b6000610909601b83610573565b9150610914826108d3565b602082019050919050565b60006020820190508181036000830152610938816108fc565b9050919050565b7f4e487b7100000000000000000000000000000000000000000000000000000000600052602260045260246000fd5b6000600282049050600182168061098657607f821691505b6020821081036109995761099861093f565b5b50919050565b60008190508160005260206000209050919050565b60006020601f8301049050919050565b60008160020a8302905092915050565b600060088302610a047fffffffffffffffffffffffffffffffffffffffffffffffffffffffffffffffff826109c4565b610a0e86836109c4565b95508019841693508086168417925050509392505050565b6000819050919050565b6000610a4b610a46610a4184610494565b610a26565b610494565b9050919050565b6000819050919050565b610a6583610a30565b610a79610a7182610a52565b8484546109d4565b825550505050565b600090565b610a8e610a81565b610a99818484610a5c565b505050565b5b81811015610abd57610ab2600082610a86565b600181019050610a9f565b5050565b601f821115610b0257610ad38161099f565b610adc846109b4565b81016020851015610aeb578190505b610aff610af7856109b4565b830182610a9e565b50505b505050565b60008160020a8304905092915050565b6000610b2860001984600802610b07565b1980831691505092915050565b6000610b418383610b17565b9150826002028217905092915050565b610b5a82610568565b67ffffffffffffffff811115610b7357610b7261067e565b5b610b7d825461096e565b610b88828285610ac1565b600060209050601f831160018114610bbb5760008415610ba9578287015190505b610bb38582610b35565b865550610c1b565b601f198416610bc98661099f565b60005b82811015610bf157848901518255600182019150602085019450602081019050610bcc565b86831015610c0e5784890151610c0a601f891682610b17565b8355505b6001600288020188555050505b505050505050565b600081905092915050565b6000610c3982610568565b610c438185610c23565b9350610c53818560208601610584565b80840191505092915050565b6000610c6b8284610c2e565b915081905092915050565b7f4e487b7100000000000000000000000000000000000000000000000000000000600052601160045260246000fd5b6000610cb082610494565b9150610cbb83610494565b9250828201905080821115610cd357610cd2610c76565b5b9291505056fea264697066735822122051a4cb1ba94e42274cc3b2d8f0c1f9aedb6e4dc90cf08ef32ee21274561148c064736f6c63430008130033",
  "immutableReferences": {},
  "source": "// SPDX-License-Identifier: MIT\npragma solidity ^0.8.19;\ncontract SayHiContract {\n    uint256 public balance;\n    address payable public owner;\n    \n    string name;\n    uint256 age;\n    constructor() {\n        owner = payable(msg.sender);\n    }\n\n    // Event to emit a greeting\n    event InfoSet(string indexed name, uint256 indexed age);\n    function setInfo(string memory _name, uint256 _age) public {\n        name = _name;\n        age = _age;\n        emit InfoSet(_name, _age);\n    }\n\n    // Function to say hi\n    function sayHi() public pure returns (string memory) {\n        return \"Hi there!\";\n    }\n\n    function getInfo() public view returns (string memory, uint256) {\n        return (name, age);\n    }\n\n    function getBalance() public  view returns(uint256) {\n        return address(this).balance;\n    }\n\n    function deposit() public payable {\n        balance += msg.value; \n    }\n\n    function withdraw (uint256 _num,address _to) public payable  {\n        require(msg.sender == owner,\"you dont't have permission to withdraw\");\n        require(balance >= _num , \"you dnt't have enough money\");\n        payable(_to).transfer (_num);\n    }\n}",
  "sourcePath": "/Users/xiaowei/work/truffle-demo/contracts/sayHiContract.sol",
  "compiler": {
    "name": "solc",
    "version": "0.8.19+commit.7dd6d404.Emscripten.clang"
  },
  "schemaVersion": "3.4.16",
  "updatedAt": "2025-05-25T10:13:11.184Z",
  "networkType": "ethereum",
  "devdoc": {
    "kind": "dev",
    "methods": {},
    "version": 1
  },
  "userdoc": {
    "kind": "user",
    "methods": {},
    "version": 1
  }
}