{
  "contractName": "SimpleWallet",
  "abi": [
    {
      "anonymous": false,
      "inputs": [
        {
          "indexed": true,
          "internalType": "address",
          "name": "user",
          "type": "address"
        },
        {
          "indexed": false,
          "internalType": "uint256",
          "name": "amount",
          "type": "uint256"
        }
      ],
      "name": "Deposit",
      "type": "event"
    },
    {
      "anonymous": false,
      "inputs": [
        {
          "indexed": true,
          "internalType": "address",
          "name": "from",
          "type": "address"
        },
        {
          "indexed": true,
          "internalType": "address",
          "name": "to",
          "type": "address"
        },
        {
          "indexed": false,
          "internalType": "uint256",
          "name": "amount",
          "type": "uint256"
        },
        {
          "indexed": false,
          "internalType": "string",
          "name": "message",
          "type": "string"
        }
      ],
      "name": "Transfer",
      "type": "event"
    },
    {
      "anonymous": false,
      "inputs": [
        {
          "indexed": true,
          "internalType": "address",
          "name": "user",
          "type": "address"
        },
        {
          "indexed": false,
          "internalType": "uint256",
          "name": "amount",
          "type": "uint256"
        }
      ],
      "name": "Withdraw",
      "type": "event"
    },
    {
      "stateMutability": "payable",
      "type": "receive",
      "payable": true
    },
    {
      "inputs": [],
      "name": "deposit",
      "outputs": [],
      "stateMutability": "payable",
      "type": "function",
      "payable": true
    },
    {
      "inputs": [
        {
          "internalType": "uint256",
          "name": "amount",
          "type": "uint256"
        }
      ],
      "name": "withdraw",
      "outputs": [],
      "stateMutability": "nonpayable",
      "type": "function"
    },
    {
      "inputs": [
        {
          "internalType": "address",
          "name": "to",
          "type": "address"
        },
        {
          "internalType": "uint256",
          "name": "amount",
          "type": "uint256"
        },
        {
          "internalType": "string",
          "name": "message",
          "type": "string"
        }
      ],
      "name": "transfer",
      "outputs": [],
      "stateMutability": "nonpayable",
      "type": "function"
    },
    {
      "inputs": [
        {
          "internalType": "address",
          "name": "user",
          "type": "address"
        }
      ],
      "name": "getBalance",
      "outputs": [
        {
          "internalType": "uint256",
          "name": "",
          "type": "uint256"
        }
      ],
      "stateMutability": "view",
      "type": "function",
      "constant": true
    },
    {
      "inputs": [],
      "name": "getMyBalance",
      "outputs": [
        {
          "internalType": "uint256",
          "name": "",
          "type": "uint256"
        }
      ],
      "stateMutability": "view",
      "type": "function",
      "constant": true
    }
  ],
  "bytecode": "0x608060405234801561001057600080fd5b50610d9e806100206000396000f3fe60806040526004361061006b576000357c0100000000000000000000000000000000000000000000000000000000900480632e1a7d4d1461007f5780634c738909146100a857806356b8c724146100d3578063d0e30db0146100fc578063f8b2cb4f146101065761007a565b3661007a57610078610143565b005b600080fd5b34801561008b57600080fd5b506100a660048036038101906100a191906106fd565b61022b565b005b3480156100b457600080fd5b506100bd6103dc565b6040516100ca9190610739565b60405180910390f35b3480156100df57600080fd5b506100fa60048036038101906100f591906108f8565b610422565b005b610104610143565b005b34801561011257600080fd5b5061012d60048036038101906101289190610967565b61066b565b60405161013a9190610739565b60405180910390f35b60003411610186576040517f08c379a000000000000000000000000000000000000000000000000000000000815260040161017d90610a17565b60405180910390fd5b346000803373ffffffffffffffffffffffffffffffffffffffff1673ffffffffffffffffffffffffffffffffffffffff16815260200190815260200160002060008282546101d49190610a66565b925050819055503373ffffffffffffffffffffffffffffffffffffffff167fe1fffcc4923d04b559f4d29a8bfc6cda04eb5b0d3c460751c2402c5c5cc9109c346040516102219190610739565b60405180910390a2565b6000811161026e576040517f08c379a000000000000000000000000000000000000000000000000000000000815260040161026590610b0c565b60405180910390fd5b806000803373ffffffffffffffffffffffffffffffffffffffff1673ffffffffffffffffffffffffffffffffffffffff1681526020019081526020016000205410156102ef576040517f08c379a00000000000000000000000000000000000000000000000000000000081526004016102e690610b78565b60405180910390fd5b806000803373ffffffffffffffffffffffffffffffffffffffff1673ffffffffffffffffffffffffffffffffffffffff168152602001908152602001600020600082825461033d9190610b98565b925050819055503373ffffffffffffffffffffffffffffffffffffffff166108fc829081150290604051600060405180830381858888f1935050505015801561038a573d6000803e3d6000fd5b503373ffffffffffffffffffffffffffffffffffffffff167f884edad9ce6fa2440d8a54cc123490eb96d2768479d49ff9c7366125a9424364826040516103d19190610739565b60405180910390a250565b60008060003373ffffffffffffffffffffffffffffffffffffffff1673ffffffffffffffffffffffffffffffffffffffff16815260200190815260200160002054905090565b600073ffffffffffffffffffffffffffffffffffffffff168373ffffffffffffffffffffffffffffffffffffffff1603610491576040517f08c379a000000000000000000000000000000000000000000000000000000000815260040161048890610c18565b60405180910390fd5b600082116104d4576040517f08c379a00000000000000000000000000000000000000000000000000000000081526004016104cb90610caa565b60405180910390fd5b816000803373ffffffffffffffffffffffffffffffffffffffff1673ffffffffffffffffffffffffffffffffffffffff168152602001908152602001600020541015610555576040517f08c379a000000000000000000000000000000000000000000000000000000000815260040161054c90610b78565b60405180910390fd5b816000803373ffffffffffffffffffffffffffffffffffffffff1673ffffffffffffffffffffffffffffffffffffffff16815260200190815260200160002060008282546105a39190610b98565b92505081905550816000808573ffffffffffffffffffffffffffffffffffffffff1673ffffffffffffffffffffffffffffffffffffffff16815260200190815260200160002060008282546105f89190610a66565b925050819055508273ffffffffffffffffffffffffffffffffffffffff163373ffffffffffffffffffffffffffffffffffffffff167fcd6e659e4c2e75c3bfe47fecaccf39aeb368116a0ee52afb532e07f6cba6c0d1848460405161065e929190610d38565b60405180910390a3505050565b60008060008373ffffffffffffffffffffffffffffffffffffffff1673ffffffffffffffffffffffffffffffffffffffff168152602001908152602001600020549050919050565b6000604051905090565b600080fd5b600080fd5b6000819050919050565b6106da816106c7565b81146106e557600080fd5b50565b6000813590506106f7816106d1565b92915050565b600060208284031215610713576107126106bd565b5b6000610721848285016106e8565b91505092915050565b610733816106c7565b82525050565b600060208201905061074e600083018461072a565b92915050565b600073ffffffffffffffffffffffffffffffffffffffff82169050919050565b600061077f82610754565b9050919050565b61078f81610774565b811461079a57600080fd5b50565b6000813590506107ac81610786565b92915050565b600080fd5b600080fd5b6000601f19601f8301169050919050565b7f4e487b7100000000000000000000000000000000000000000000000000000000600052604160045260246000fd5b610805826107bc565b810181811067ffffffffffffffff82111715610824576108236107cd565b5b80604052505050565b60006108376106b3565b905061084382826107fc565b919050565b600067ffffffffffffffff821115610863576108626107cd565b5b61086c826107bc565b9050602081019050919050565b82818337600083830152505050565b600061089b61089684610848565b61082d565b9050828152602081018484840111156108b7576108b66107b7565b5b6108c2848285610879565b509392505050565b600082601f8301126108df576108de6107b2565b5b81356108ef848260208601610888565b91505092915050565b600080600060608486031215610911576109106106bd565b5b600061091f8682870161079d565b9350506020610930868287016106e8565b925050604084013567ffffffffffffffff811115610951576109506106c2565b5b61095d868287016108ca565b9150509250925092565b60006020828403121561097d5761097c6106bd565b5b600061098b8482850161079d565b91505092915050565b600082825260208201905092915050565b7f4465706f73697420616d6f756e74206d7573742062652067726561746572207460008201527f68616e2030000000000000000000000000000000000000000000000000000000602082015250565b6000610a01602583610994565b9150610a0c826109a5565b604082019050919050565b60006020820190508181036000830152610a30816109f4565b9050919050565b7f4e487b7100000000000000000000000000000000000000000000000000000000600052601160045260246000fd5b6000610a71826106c7565b9150610a7c836106c7565b9250828201905080821115610a9457610a93610a37565b5b92915050565b7f576974686472617720616d6f756e74206d75737420626520677265617465722060008201527f7468616e20300000000000000000000000000000000000000000000000000000602082015250565b6000610af6602683610994565b9150610b0182610a9a565b604082019050919050565b60006020820190508181036000830152610b2581610ae9565b9050919050565b7f496e73756666696369656e742062616c616e6365000000000000000000000000600082015250565b6000610b62601483610994565b9150610b6d82610b2c565b602082019050919050565b60006020820190508181036000830152610b9181610b55565b9050919050565b6000610ba3826106c7565b9150610bae836106c7565b9250828203905081811115610bc657610bc5610a37565b5b92915050565b7f496e76616c696420726563697069656e74206164647265737300000000000000600082015250565b6000610c02601983610994565b9150610c0d82610bcc565b602082019050919050565b60006020820190508181036000830152610c3181610bf5565b9050919050565b7f5472616e7366657220616d6f756e74206d75737420626520677265617465722060008201527f7468616e20300000000000000000000000000000000000000000000000000000602082015250565b6000610c94602683610994565b9150610c9f82610c38565b604082019050919050565b60006020820190508181036000830152610cc381610c87565b9050919050565b600081519050919050565b60005b83811015610cf3578082015181840152602081019050610cd8565b60008484015250505050565b6000610d0a82610cca565b610d148185610994565b9350610d24818560208601610cd5565b610d2d816107bc565b840191505092915050565b6000604082019050610d4d600083018561072a565b8181036020830152610d5f8184610cff565b9050939250505056fea264697066735822122026678001edc388bf7a3383b1d88d608a10c6228aa8af5f0dcb185a9cfc8fafcb64736f6c63430008130033",
  "immutableReferences": {},
  "source": "// SPDX-License-Identifier: MIT\npragma solidity ^0.8.0;\n\ncontract SimpleWallet {\n    // \n    mapping(address => uint256) private balances;\n    \n    // \n    event Deposit(address indexed user, uint256 amount);\n    \n    // \n    event Withdraw(address indexed user, uint256 amount);\n    \n    // \n    event Transfer(address indexed from, address indexed to, uint256 amount, string message);\n    \n    //  - ETH\n    function deposit() public payable {\n        require(msg.value > 0, \"Deposit amount must be greater than 0\");\n        balances[msg.sender] += msg.value;\n        emit Deposit(msg.sender, msg.value);\n    }\n    \n    //  - ETH\n    function withdraw(uint256 amount) public {\n        require(amount > 0, \"Withdraw amount must be greater than 0\");\n        require(balances[msg.sender] >= amount, \"Insufficient balance\");\n        \n        balances[msg.sender] -= amount;\n        payable(msg.sender).transfer(amount);\n        emit Withdraw(msg.sender, amount);\n    }\n    \n    //  - \n    function transfer(address to, uint256 amount, string memory message) public {\n        require(to != address(0), \"Invalid recipient address\");\n        require(amount > 0, \"Transfer amount must be greater than 0\");\n        require(balances[msg.sender] >= amount, \"Insufficient balance\");\n        \n        balances[msg.sender] -= amount;\n        balances[to] += amount;\n        emit Transfer(msg.sender, to, amount, message);\n    }\n    \n    // \n    function getBalance(address user) public view returns (uint256) {\n        return balances[user];\n    }\n    \n    // \n    function getMyBalance() public view returns (uint256) {\n        return balances[msg.sender];\n    }\n    \n    // ETH\n    receive() external payable {\n        deposit();\n    }\n}",
  "sourcePath": "/Users/xiaowei/work/truffle-demo/contracts/SimpleWallet.sol",
  "compiler": {
    "name": "solc",
    "version": "0.8.19+commit.7dd6d404.Emscripten.clang"
  },
  "schemaVersion": "3.4.16",
  "updatedAt": "2025-06-02T11:56:39.426Z",
  "networkType": "ethereum",
  "devdoc": {
    "kind": "dev",
    "methods": {},
    "version": 1
  },
  "userdoc": {
    "kind": "user",
    "methods": {},
    "version": 1
  }
}